{
  "contractName": "DataShard",
  "abi": [
    {
      "inputs": [
        {
          "internalType": "uint256",
          "name": "",
          "type": "uint256"
        }
      ],
      "name": "dataShards",
      "outputs": [
        {
          "internalType": "bytes32",
          "name": "dataHash",
          "type": "bytes32"
        }
      ],
      "stateMutability": "view",
      "type": "function",
      "constant": true
    },
    {
      "inputs": [
        {
          "internalType": "uint256",
          "name": "_shardId",
          "type": "uint256"
        },
        {
          "internalType": "bytes32",
          "name": "_dataHash",
          "type": "bytes32"
        },
        {
          "internalType": "address[]",
          "name": "_authorizedMembers",
          "type": "address[]"
        }
      ],
      "name": "storeData",
      "outputs": [],
      "stateMutability": "nonpayable",
      "type": "function"
    },
    {
      "inputs": [
        {
          "internalType": "uint256",
          "name": "_shardId",
          "type": "uint256"
        }
      ],
      "name": "getData",
      "outputs": [
        {
          "internalType": "bytes32",
          "name": "",
          "type": "bytes32"
        }
      ],
      "stateMutability": "view",
      "type": "function",
      "constant": true
    },
    {
      "inputs": [
        {
          "internalType": "uint256",
          "name": "_shardId",
          "type": "uint256"
        },
        {
          "internalType": "address",
          "name": "_member",
          "type": "address"
        }
      ],
      "name": "isMemberAuthorized",
      "outputs": [
        {
          "internalType": "bool",
          "name": "",
          "type": "bool"
        }
      ],
      "stateMutability": "view",
      "type": "function",
      "constant": true
    }
  ],
  "bytecode": "0x608060405234801561001057600080fd5b5061084b806100206000396000f3fe608060405234801561001057600080fd5b506004361061004c5760003560e01c80630178fe3f1461005157806334ee647614610081578063643ef468146100b1578063bd7a521a146100cd575b600080fd5b61006b600480360381019061006691906103a3565b6100fd565b60405161007891906103e9565b60405180910390f35b61009b600480360381019061009691906103a3565b61011c565b6040516100a891906103e9565b60405180910390f35b6100cb60048036038101906100c691906105e7565b61013a565b005b6100e760048036038101906100e29190610656565b6101dd565b6040516100f491906106b1565b60405180910390f35b6000806000838152602001908152602001600020600001549050919050565b60006020528060005260406000206000915090508060000154905081565b6000801b6000808581526020019081526020016000206000015414610194576040517f08c379a000000000000000000000000000000000000000000000000000000000815260040161018b9061074f565b60405180910390fd5b81600080858152602001908152602001600020600001819055508060008085815260200190815260200160002060010190805190602001906101d79291906102b2565b50505050565b600080600090505b600080858152602001908152602001600020600101805490508110156102a6578273ffffffffffffffffffffffffffffffffffffffff1660008086815260200190815260200160002060010182815481106102435761024261076f565b5b9060005260206000200160009054906101000a900473ffffffffffffffffffffffffffffffffffffffff1673ffffffffffffffffffffffffffffffffffffffff16036102935760019150506102ac565b808061029e906107cd565b9150506101e5565b50600090505b92915050565b82805482825590600052602060002090810192821561032b579160200282015b8281111561032a5782518260006101000a81548173ffffffffffffffffffffffffffffffffffffffff021916908373ffffffffffffffffffffffffffffffffffffffff160217905550916020019190600101906102d2565b5b509050610338919061033c565b5090565b5b8082111561035557600081600090555060010161033d565b5090565b6000604051905090565b600080fd5b600080fd5b6000819050919050565b6103808161036d565b811461038b57600080fd5b50565b60008135905061039d81610377565b92915050565b6000602082840312156103b9576103b8610363565b5b60006103c78482850161038e565b91505092915050565b6000819050919050565b6103e3816103d0565b82525050565b60006020820190506103fe60008301846103da565b92915050565b61040d816103d0565b811461041857600080fd5b50565b60008135905061042a81610404565b92915050565b600080fd5b6000601f19601f8301169050919050565b7f4e487b7100000000000000000000000000000000000000000000000000000000600052604160045260246000fd5b61047e82610435565b810181811067ffffffffffffffff8211171561049d5761049c610446565b5b80604052505050565b60006104b0610359565b90506104bc8282610475565b919050565b600067ffffffffffffffff8211156104dc576104db610446565b5b602082029050602081019050919050565b600080fd5b600073ffffffffffffffffffffffffffffffffffffffff82169050919050565b600061051d826104f2565b9050919050565b61052d81610512565b811461053857600080fd5b50565b60008135905061054a81610524565b92915050565b600061056361055e846104c1565b6104a6565b90508083825260208201905060208402830185811115610586576105856104ed565b5b835b818110156105af578061059b888261053b565b845260208401935050602081019050610588565b5050509392505050565b600082601f8301126105ce576105cd610430565b5b81356105de848260208601610550565b91505092915050565b600080600060608486031215610600576105ff610363565b5b600061060e8682870161038e565b935050602061061f8682870161041b565b925050604084013567ffffffffffffffff8111156106405761063f610368565b5b61064c868287016105b9565b9150509250925092565b6000806040838503121561066d5761066c610363565b5b600061067b8582860161038e565b925050602061068c8582860161053b565b9150509250929050565b60008115159050919050565b6106ab81610696565b82525050565b60006020820190506106c660008301846106a2565b92915050565b600082825260208201905092915050565b7f4461746120616c72656164792065786973747320696e2074686973207368617260008201527f6400000000000000000000000000000000000000000000000000000000000000602082015250565b60006107396021836106cc565b9150610744826106dd565b604082019050919050565b600060208201905081810360008301526107688161072c565b9050919050565b7f4e487b7100000000000000000000000000000000000000000000000000000000600052603260045260246000fd5b7f4e487b7100000000000000000000000000000000000000000000000000000000600052601160045260246000fd5b60006107d88261036d565b91507fffffffffffffffffffffffffffffffffffffffffffffffffffffffffffffffff820361080a5761080961079e565b5b60018201905091905056fea26469706673582212202e622403efbf4c3275a80e19f4a25316d974798f1472d00a27a980274aea0d6b64736f6c63430008130033",
  "immutableReferences": {},
  "source": "// SPDX-License-Identifier: MIT\npragma solidity ^0.8.19;\n\ncontract DataShard {\n    struct Data {\n        bytes32 dataHash;\n        address[] authorizedMembers;\n    }\n    \n    mapping(uint256 => Data) public dataShards;\n\n    function storeData(uint256 _shardId, bytes32 _dataHash, address[] memory _authorizedMembers) public {\n        require(dataShards[_shardId].dataHash == 0, \"Data already exists in this shard\");\n\n        dataShards[_shardId].dataHash = _dataHash;\n        dataShards[_shardId].authorizedMembers = _authorizedMembers;\n    }\n\n    function getData(uint256 _shardId) public view returns (bytes32) {\n        return dataShards[_shardId].dataHash;\n    }\n\n    function isMemberAuthorized(uint256 _shardId, address _member) public view returns (bool) {\n        for (uint256 i = 0; i < dataShards[_shardId].authorizedMembers.length; i++) {\n            if (dataShards[_shardId].authorizedMembers[i] == _member) {\n                return true;\n            }\n        }\n        return false;\n    }\n}\n",
  "sourcePath": "/Users/sanjaykumaar/Documents/files/Coding/HealthcareBlockchain/contracts/DataShard.sol",
  "compiler": {
    "name": "solc",
    "version": "0.8.19+commit.7dd6d404.Emscripten.clang"
  },
  "schemaVersion": "3.4.16",
  "updatedAt": "2024-10-03T11:06:47.772Z",
  "networkType": "ethereum",
  "devdoc": {
    "kind": "dev",
    "methods": {},
    "version": 1
  },
  "userdoc": {
    "kind": "user",
    "methods": {},
    "version": 1
  }
}