{
  "contractName": "ShardManager",
  "abi": [
    {
      "inputs": [],
      "name": "shardCount",
      "outputs": [
        {
          "internalType": "uint256",
          "name": "",
          "type": "uint256"
        }
      ],
      "stateMutability": "view",
      "type": "function",
      "constant": true
    },
    {
      "inputs": [
        {
          "internalType": "uint256",
          "name": "",
          "type": "uint256"
        }
      ],
      "name": "shards",
      "outputs": [
        {
          "internalType": "uint256",
          "name": "id",
          "type": "uint256"
        },
        {
          "internalType": "uint256",
          "name": "threshold",
          "type": "uint256"
        },
        {
          "internalType": "uint256",
          "name": "secret",
          "type": "uint256"
        }
      ],
      "stateMutability": "view",
      "type": "function",
      "constant": true
    },
    {
      "inputs": [
        {
          "internalType": "uint256",
          "name": "_id",
          "type": "uint256"
        },
        {
          "internalType": "uint256",
          "name": "_threshold",
          "type": "uint256"
        }
      ],
      "name": "createShard",
      "outputs": [],
      "stateMutability": "nonpayable",
      "type": "function"
    },
    {
      "inputs": [
        {
          "internalType": "uint256",
          "name": "_shardId",
          "type": "uint256"
        },
        {
          "internalType": "address",
          "name": "_member",
          "type": "address"
        }
      ],
      "name": "addMemberToShard",
      "outputs": [],
      "stateMutability": "nonpayable",
      "type": "function"
    },
    {
      "inputs": [
        {
          "internalType": "uint256",
          "name": "_shardId",
          "type": "uint256"
        },
        {
          "internalType": "uint256",
          "name": "_secret",
          "type": "uint256"
        }
      ],
      "name": "splitSecret",
      "outputs": [],
      "stateMutability": "nonpayable",
      "type": "function"
    },
    {
      "inputs": [
        {
          "internalType": "uint256",
          "name": "_shardId",
          "type": "uint256"
        },
        {
          "internalType": "uint256[]",
          "name": "_shares",
          "type": "uint256[]"
        }
      ],
      "name": "reconstructSecret",
      "outputs": [
        {
          "internalType": "uint256",
          "name": "",
          "type": "uint256"
        }
      ],
      "stateMutability": "view",
      "type": "function",
      "constant": true
    },
    {
      "inputs": [
        {
          "internalType": "uint256",
          "name": "_shardId",
          "type": "uint256"
        }
      ],
      "name": "getMembers",
      "outputs": [
        {
          "internalType": "address[]",
          "name": "",
          "type": "address[]"
        }
      ],
      "stateMutability": "view",
      "type": "function",
      "constant": true
    },
    {
      "inputs": [
        {
          "internalType": "uint256",
          "name": "_shardId",
          "type": "uint256"
        }
      ],
      "name": "getShard",
      "outputs": [
        {
          "internalType": "uint256",
          "name": "id",
          "type": "uint256"
        },
        {
          "internalType": "address[]",
          "name": "members",
          "type": "address[]"
        }
      ],
      "stateMutability": "view",
      "type": "function",
      "constant": true
    }
  ],
  "bytecode": "0x608060405234801561001057600080fd5b506110e4806100206000396000f3fe608060405234801561001057600080fd5b50600436106100885760003560e01c8063b68eb5781161005b578063b68eb5781461012a578063c477ecab14610146578063d0a9e5d714610176578063ed76cb6f146101a657610088565b806304e9c77a1461008d57806316faae90146100ab5780631f16a57b146100dd57806384b252da1461010e575b600080fd5b6100956101c2565b6040516100a29190610867565b60405180910390f35b6100c560048036038101906100c091906108c2565b6101c8565b6040516100d4939291906108ef565b60405180910390f35b6100f760048036038101906100f291906108c2565b6101f2565b604051610105929190610a16565b60405180910390f35b61012860048036038101906101239190610a46565b6102ee565b005b610144600480360381019061013f9190610ab2565b610396565b005b610160600480360381019061015b91906108c2565b610573565b60405161016d9190610af2565b60405180910390f35b610190600480360381019061018b9190610c6d565b610616565b60405161019d9190610867565b60405180910390f35b6101c060048036038101906101bb9190610a46565b6106c4565b005b60015481565b60006020528060005260406000206000915090508060000154908060030154908060050154905083565b60006060600080600085815260200190815260200160002090506000816000015403610253576040517f08c379a000000000000000000000000000000000000000000000000000000000815260040161024a90610d26565b60405180910390fd5b806000015481600101808054806020026020016040519081016040528092919081815260200182805480156102dd57602002820191906000526020600020905b8160009054906101000a900473ffffffffffffffffffffffffffffffffffffffff1673ffffffffffffffffffffffffffffffffffffffff1681526020019060010190808311610293575b505050505090509250925050915091565b60008060008481526020019081526020016000206000015414610346576040517f08c379a000000000000000000000000000000000000000000000000000000000815260040161033d90610d92565b60405180910390fd5b816000808481526020019081526020016000206000018190555080600080848152602001908152602001600020600301819055506001600081548092919061038d90610de1565b91905055505050565b600080600084815260200190815260200160002060000154036103ee576040517f08c379a00000000000000000000000000000000000000000000000000000000081526004016103e590610d26565b60405180910390fd5b60008083815260200190815260200160002060020160008273ffffffffffffffffffffffffffffffffffffffff1673ffffffffffffffffffffffffffffffffffffffff16815260200190815260200160002060009054906101000a900460ff161561048e576040517f08c379a000000000000000000000000000000000000000000000000000000000815260040161048590610e75565b60405180910390fd5b600080838152602001908152602001600020600101819080600181540180825580915050600190039060005260206000200160009091909190916101000a81548173ffffffffffffffffffffffffffffffffffffffff021916908373ffffffffffffffffffffffffffffffffffffffff160217905550600160008084815260200190815260200160002060020160008373ffffffffffffffffffffffffffffffffffffffff1673ffffffffffffffffffffffffffffffffffffffff16815260200190815260200160002060006101000a81548160ff0219169083151502179055505050565b606060008083815260200190815260200160002060010180548060200260200160405190810160405280929190818152602001828054801561060a57602002820191906000526020600020905b8160009054906101000a900473ffffffffffffffffffffffffffffffffffffffff1673ffffffffffffffffffffffffffffffffffffffff16815260200190600101908083116105c0575b50505050509050919050565b60008060008481526020019081526020016000206003015482511015610671576040517f08c379a000000000000000000000000000000000000000000000000000000000815260040161066890610ee1565b60405180910390fd5b6000805b83518110156106b95783818151811061069157610690610f01565b5b6020026020010151826106a49190610f30565b915080806106b190610de1565b915050610675565b508091505092915050565b6000806000848152602001908152602001600020600001540361071c576040517f08c379a000000000000000000000000000000000000000000000000000000000815260040161071390610d26565b60405180910390fd5b60008060008481526020019081526020016000206001018054905011610777576040517f08c379a000000000000000000000000000000000000000000000000000000000815260040161076e90610fb0565b60405180910390fd5b806000808481526020019081526020016000206005018190555060008060008481526020019081526020016000206003015490506000600190505b8181116108485760006064826040516020016107ce9190610ff1565b6040516020818303038152906040528051906020012060001c836107f2919061100c565b856107fd9190610f30565b610807919061107d565b90508060008087815260200190815260200160002060040160008481526020019081526020016000208190555050808061084090610de1565b9150506107b2565b50505050565b6000819050919050565b6108618161084e565b82525050565b600060208201905061087c6000830184610858565b92915050565b6000604051905090565b600080fd5b600080fd5b61089f8161084e565b81146108aa57600080fd5b50565b6000813590506108bc81610896565b92915050565b6000602082840312156108d8576108d761088c565b5b60006108e6848285016108ad565b91505092915050565b60006060820190506109046000830186610858565b6109116020830185610858565b61091e6040830184610858565b949350505050565b600081519050919050565b600082825260208201905092915050565b6000819050602082019050919050565b600073ffffffffffffffffffffffffffffffffffffffff82169050919050565b600061097d82610952565b9050919050565b61098d81610972565b82525050565b600061099f8383610984565b60208301905092915050565b6000602082019050919050565b60006109c382610926565b6109cd8185610931565b93506109d883610942565b8060005b83811015610a095781516109f08882610993565b97506109fb836109ab565b9250506001810190506109dc565b5085935050505092915050565b6000604082019050610a2b6000830185610858565b8181036020830152610a3d81846109b8565b90509392505050565b60008060408385031215610a5d57610a5c61088c565b5b6000610a6b858286016108ad565b9250506020610a7c858286016108ad565b9150509250929050565b610a8f81610972565b8114610a9a57600080fd5b50565b600081359050610aac81610a86565b92915050565b60008060408385031215610ac957610ac861088c565b5b6000610ad7858286016108ad565b9250506020610ae885828601610a9d565b9150509250929050565b60006020820190508181036000830152610b0c81846109b8565b905092915050565b600080fd5b6000601f19601f8301169050919050565b7f4e487b7100000000000000000000000000000000000000000000000000000000600052604160045260246000fd5b610b6282610b19565b810181811067ffffffffffffffff82111715610b8157610b80610b2a565b5b80604052505050565b6000610b94610882565b9050610ba08282610b59565b919050565b600067ffffffffffffffff821115610bc057610bbf610b2a565b5b602082029050602081019050919050565b600080fd5b6000610be9610be484610ba5565b610b8a565b90508083825260208201905060208402830185811115610c0c57610c0b610bd1565b5b835b81811015610c355780610c2188826108ad565b845260208401935050602081019050610c0e565b5050509392505050565b600082601f830112610c5457610c53610b14565b5b8135610c64848260208601610bd6565b91505092915050565b60008060408385031215610c8457610c8361088c565b5b6000610c92858286016108ad565b925050602083013567ffffffffffffffff811115610cb357610cb2610891565b5b610cbf85828601610c3f565b9150509250929050565b600082825260208201905092915050565b7f536861726420646f6573206e6f74206578697374000000000000000000000000600082015250565b6000610d10601483610cc9565b9150610d1b82610cda565b602082019050919050565b60006020820190508181036000830152610d3f81610d03565b9050919050565b7f536861726420616c726561647920657869737473000000000000000000000000600082015250565b6000610d7c601483610cc9565b9150610d8782610d46565b602082019050919050565b60006020820190508181036000830152610dab81610d6f565b9050919050565b7f4e487b7100000000000000000000000000000000000000000000000000000000600052601160045260246000fd5b6000610dec8261084e565b91507fffffffffffffffffffffffffffffffffffffffffffffffffffffffffffffffff8203610e1e57610e1d610db2565b5b600182019050919050565b7f4d656d62657220616c72656164792065786973747320696e2073686172640000600082015250565b6000610e5f601e83610cc9565b9150610e6a82610e29565b602082019050919050565b60006020820190508181036000830152610e8e81610e52565b9050919050565b7f4e6f7420656e6f756768207368617265732070726f7669646564000000000000600082015250565b6000610ecb601a83610cc9565b9150610ed682610e95565b602082019050919050565b60006020820190508181036000830152610efa81610ebe565b9050919050565b7f4e487b7100000000000000000000000000000000000000000000000000000000600052603260045260246000fd5b6000610f3b8261084e565b9150610f468361084e565b9250828201905080821115610f5e57610f5d610db2565b5b92915050565b7f4e6f206d656d6265727320696e20736861726400000000000000000000000000600082015250565b6000610f9a601383610cc9565b9150610fa582610f64565b602082019050919050565b60006020820190508181036000830152610fc981610f8d565b9050919050565b6000819050919050565b610feb610fe68261084e565b610fd0565b82525050565b6000610ffd8284610fda565b60208201915081905092915050565b60006110178261084e565b91506110228361084e565b92508282026110308161084e565b9150828204841483151761104757611046610db2565b5b5092915050565b7f4e487b7100000000000000000000000000000000000000000000000000000000600052601260045260246000fd5b60006110888261084e565b91506110938361084e565b9250826110a3576110a261104e565b5b82820690509291505056fea2646970667358221220fca5ca1bbcd228854a30cc3f776c1c4a5de4d87bd48e10f60112f0baea3474f364736f6c63430008130033",
  "immutableReferences": {},
  "source": "// SPDX-License-Identifier: MIT\npragma solidity ^0.8.19;\n\ncontract ShardManager {\n    struct Shard {\n        uint256 id;\n        address[] members;\n        mapping(address => bool) memberExists;\n        uint256 threshold; // Threshold for secret sharing\n        mapping(uint256 => uint256) shares; // Store shares\n        uint256 secret; // Actual secret\n    }\n\n    mapping(uint256 => Shard) public shards;\n    uint256 public shardCount;\n\n    // Function to create a new shard\n    function createShard(uint256 _id, uint256 _threshold) public {\n        require(shards[_id].id == 0, \"Shard already exists\");\n        shards[_id].id = _id; // Initialize the shard\n        shards[_id].threshold = _threshold; // Set threshold for secret sharing\n        shardCount++;\n    }\n\n    // Function to add a member to a shard\n    function addMemberToShard(uint256 _shardId, address _member) public {\n        require(shards[_shardId].id != 0, \"Shard does not exist\");\n        require(!shards[_shardId].memberExists[_member], \"Member already exists in shard\");\n\n        shards[_shardId].members.push(_member);\n        shards[_shardId].memberExists[_member] = true;\n    }\n\n    // Function to split a secret using Shamir's45 Secret Sharing\n    function splitSecret(uint256 _shardId, uint256 _secret) public {\n        require(shards[_shardId].id != 0, \"Shard does not exist\");\n        require(shards[_shardId].members.length > 0, \"No members in shard\");\n\n        shards[_shardId].secret = _secret; // Store the secret\n\n        uint256 threshold = shards[_shardId].threshold;\n        for (uint256 i = 1; i <= threshold; i++) {\n            uint256 share = (_secret + i * uint256(keccak256(abi.encodePacked(i)))) % 100; // Generate a share\n            shards[_shardId].shares[i] = share; // Store the share\n        }\n    }\n\n    // Function to reconstruct the secret from shares\n    function reconstructSecret(uint256 _shardId, uint256[] memory _shares) public view returns (uint256) {\n        require(_shares.length >= shards[_shardId].threshold, \"Not enough shares provided\");\n\n        uint256 secret = 0;\n        for (uint256 i = 0; i < _shares.length; i++) {\n            secret += _shares[i]; // Combine the shares (simple addition for this example)\n        }\n\n        return secret; // Return the reconstructed secret\n    }\n\n    // Function to get members of a shard\n    function getMembers(uint256 _shardId) public view returns (address[] memory) {\n        return shards[_shardId].members;\n    }\n\n    // Function to get shard details\n    function getShard(uint256 _shardId) public view returns (uint256 id, address[] memory members) {\n        Shard storage shard = shards[_shardId];\n        require(shard.id != 0, \"Shard does not exist\"); // Check if the shard exists\n        return (shard.id, shard.members);\n    }\n}\n",
  "sourcePath": "/Users/sanjaykumaar/Documents/files/Coding/HealthcareBlockchain/contracts/ShardManager.sol",
  "compiler": {
    "name": "solc",
    "version": "0.8.19+commit.7dd6d404.Emscripten.clang"
  },
  "schemaVersion": "3.4.16",
  "updatedAt": "2024-10-03T11:06:47.770Z",
  "networkType": "ethereum",
  "devdoc": {
    "kind": "dev",
    "methods": {},
    "version": 1
  },
  "userdoc": {
    "kind": "user",
    "methods": {},
    "version": 1
  }
}